time=2024-05-31T09:03:38.393-03:00 level=INFO msg=Configured api=signer "audit log"=audit.log
time=2024-05-31T09:04:56.275-03:00 level=INFO msg=Configured api=signer "audit log"=audit.log
time=2024-05-31T09:06:35.357-03:00 level=INFO msg=Version api=signer type=request metadata="{\"remote\":\"172.22.0.2:50164\",\"local\":\"172.17.0.1:8550\",\"scheme\":\"http\",\"User-Agent\":\"Go-http-client/1.1\",\"Origin\":\"\"}"
time=2024-05-31T09:06:35.357-03:00 level=INFO msg=Version api=signer type=response data=6.1.0 error=<nil>
time=2024-05-31T09:07:53.926-03:00 level=INFO msg=Version api=signer type=request metadata="{\"remote\":\"172.25.0.2:49344\",\"local\":\"172.17.0.1:8550\",\"scheme\":\"http\",\"User-Agent\":\"Go-http-client/1.1\",\"Origin\":\"\"}"
time=2024-05-31T09:07:53.926-03:00 level=INFO msg=Version api=signer type=response data=6.1.0 error=<nil>
time=2024-05-31T09:09:36.500-03:00 level=INFO msg=Configured api=signer "audit log"=audit.log
time=2024-05-31T09:09:46.258-03:00 level=INFO msg=Version api=signer type=request metadata="{\"remote\":\"172.27.0.3:58574\",\"local\":\"172.17.0.1:8550\",\"scheme\":\"http\",\"User-Agent\":\"Go-http-client/1.1\",\"Origin\":\"\"}"
time=2024-05-31T09:09:46.258-03:00 level=INFO msg=Version api=signer type=response data=6.1.0 error=<nil>
time=2024-05-31T09:10:03.384-03:00 level=INFO msg=List api=signer type=request metadata="{\"remote\":\"172.27.0.3:58574\",\"local\":\"172.17.0.1:8550\",\"scheme\":\"http\",\"User-Agent\":\"Go-http-client/1.1\",\"Origin\":\"\"}"
time=2024-05-31T09:10:09.008-03:00 level=INFO msg=List api=signer type=response data="[0x123463a4B065722E99115D6c222f267d9cABb524 0x1A29FA9391097a293A9CEEeFe90FC0E1fdfb0665]"
time=2024-05-31T10:47:14.745-03:00 level=INFO msg=Configured api=signer "audit log"=audit.log
time=2024-05-31T10:47:23.713-03:00 level=INFO msg=Version api=signer type=request metadata="{\"remote\":\"172.28.0.3:46972\",\"local\":\"172.17.0.1:8550\",\"scheme\":\"http\",\"User-Agent\":\"Go-http-client/1.1\",\"Origin\":\"\"}"
time=2024-05-31T10:47:23.713-03:00 level=INFO msg=Version api=signer type=response data=6.1.0 error=<nil>
time=2024-05-31T10:47:50.804-03:00 level=INFO msg=List api=signer type=request metadata="{\"remote\":\"172.28.0.3:46972\",\"local\":\"172.17.0.1:8550\",\"scheme\":\"http\",\"User-Agent\":\"Go-http-client/1.1\",\"Origin\":\"\"}"
time=2024-05-31T10:47:53.995-03:00 level=INFO msg=List api=signer type=response data="[0x123463a4B065722E99115D6c222f267d9cABb524 0x25815ef1C6Eb80D88A5E31412022B8870B7B1C43 0x646a916f656F39e1EFA98d4D8eBA2BBdb7C6779B]"
time=2024-05-31T10:47:53.997-03:00 level=INFO msg=List api=signer type=request metadata="{\"remote\":\"172.28.0.3:46972\",\"local\":\"172.17.0.1:8550\",\"scheme\":\"http\",\"User-Agent\":\"Go-http-client/1.1\",\"Origin\":\"\"}"
time=2024-05-31T10:48:00.259-03:00 level=INFO msg=List api=signer type=response data="[0x123463a4B065722E99115D6c222f267d9cABb524 0x25815ef1C6Eb80D88A5E31412022B8870B7B1C43 0x646a916f656F39e1EFA98d4D8eBA2BBdb7C6779B]"
time=2024-05-31T10:48:00.264-03:00 level=INFO msg=SignTransaction api=signer type=request metadata="{\"remote\":\"172.28.0.3:46972\",\"local\":\"172.17.0.1:8550\",\"scheme\":\"http\",\"User-Agent\":\"Go-http-client/1.1\",\"Origin\":\"\"}" tx="{\"from\":\"0x123463a4B065722E99115D6c222f267d9cABb524\",\"to\":\"0x25815ef1C6Eb80D88A5E31412022B8870B7B1C43\",\"gas\":\"0x5208\",\"gasPrice\":null,\"maxFeePerGas\":\"0xa3e9ab80\",\"maxPriorityFeePerGas\":\"0x3b9aca00\",\"value\":\"0x6f05b59d3b20000\",\"nonce\":\"0x0\",\"data\":\"0x\",\"accessList\":[],\"chainId\":\"0x7e7e\"}" methodSelector=<nil>
time=2024-05-31T10:48:16.379-03:00 level=INFO msg=SignTransaction api=signer type=response data=02f874827e7e80843b9aca0084a3e9ab808252089425815ef1c6eb80d88a5e31412022b8870b7b1c438806f05b59d3b2000080c001a05080ce1d01e3d09e9be29d7a475e754afadf3bd5267fa555c5c81d4dd17d36f4a03c97ca2b846a5d856e639c5f3aaee2347a383b7f1f7fcddd2e0b9ba9d6425b76 error=<nil>
time=2024-05-31T10:48:32.428-03:00 level=INFO msg=List api=signer type=request metadata="{\"remote\":\"172.28.0.3:46972\",\"local\":\"172.17.0.1:8550\",\"scheme\":\"http\",\"User-Agent\":\"Go-http-client/1.1\",\"Origin\":\"\"}"
time=2024-05-31T10:48:36.170-03:00 level=INFO msg=List api=signer type=response data="[0x123463a4B065722E99115D6c222f267d9cABb524 0x25815ef1C6Eb80D88A5E31412022B8870B7B1C43 0x646a916f656F39e1EFA98d4D8eBA2BBdb7C6779B]"
time=2024-05-31T10:49:18.883-03:00 level=INFO msg=List api=signer type=request metadata="{\"remote\":\"172.28.0.3:46972\",\"local\":\"172.17.0.1:8550\",\"scheme\":\"http\",\"User-Agent\":\"Go-http-client/1.1\",\"Origin\":\"\"}"
time=2024-05-31T10:49:21.561-03:00 level=INFO msg=List api=signer type=response data="[0x123463a4B065722E99115D6c222f267d9cABb524 0x25815ef1C6Eb80D88A5E31412022B8870B7B1C43 0x646a916f656F39e1EFA98d4D8eBA2BBdb7C6779B]"
time=2024-05-31T10:49:21.563-03:00 level=INFO msg=List api=signer type=request metadata="{\"remote\":\"172.28.0.3:46972\",\"local\":\"172.17.0.1:8550\",\"scheme\":\"http\",\"User-Agent\":\"Go-http-client/1.1\",\"Origin\":\"\"}"
time=2024-05-31T10:49:24.241-03:00 level=INFO msg=List api=signer type=response data="[0x123463a4B065722E99115D6c222f267d9cABb524 0x25815ef1C6Eb80D88A5E31412022B8870B7B1C43 0x646a916f656F39e1EFA98d4D8eBA2BBdb7C6779B]"
time=2024-05-31T10:49:24.248-03:00 level=INFO msg=SignTransaction api=signer type=request metadata="{\"remote\":\"172.28.0.3:46972\",\"local\":\"172.17.0.1:8550\",\"scheme\":\"http\",\"User-Agent\":\"Go-http-client/1.1\",\"Origin\":\"\"}" tx="{\"from\":\"0x25815ef1C6Eb80D88A5E31412022B8870B7B1C43\",\"to\":\"0x646a916f656F39e1EFA98d4D8eBA2BBdb7C6779B\",\"gas\":\"0x5208\",\"gasPrice\":null,\"maxFeePerGas\":\"0x6492ff90\",\"maxPriorityFeePerGas\":\"0x3b9aca00\",\"value\":\"0x470de4df820000\",\"nonce\":\"0x0\",\"data\":\"0x\",\"accessList\":[],\"chainId\":\"0x7e7e\"}" methodSelector=<nil>
time=2024-05-31T10:49:36.659-03:00 level=INFO msg=SignTransaction api=signer type=response data=<nil> error="could not decrypt key with given password"
time=2024-05-31T10:49:40.867-03:00 level=INFO msg=List api=signer type=request metadata="{\"remote\":\"172.28.0.3:46972\",\"local\":\"172.17.0.1:8550\",\"scheme\":\"http\",\"User-Agent\":\"Go-http-client/1.1\",\"Origin\":\"\"}"
time=2024-05-31T10:49:42.985-03:00 level=INFO msg=List api=signer type=response data="[0x123463a4B065722E99115D6c222f267d9cABb524 0x25815ef1C6Eb80D88A5E31412022B8870B7B1C43 0x646a916f656F39e1EFA98d4D8eBA2BBdb7C6779B]"
time=2024-05-31T10:49:42.987-03:00 level=INFO msg=List api=signer type=request metadata="{\"remote\":\"172.28.0.3:46972\",\"local\":\"172.17.0.1:8550\",\"scheme\":\"http\",\"User-Agent\":\"Go-http-client/1.1\",\"Origin\":\"\"}"
time=2024-05-31T10:49:43.561-03:00 level=INFO msg=List api=signer type=response data="[0x123463a4B065722E99115D6c222f267d9cABb524 0x25815ef1C6Eb80D88A5E31412022B8870B7B1C43 0x646a916f656F39e1EFA98d4D8eBA2BBdb7C6779B]"
time=2024-05-31T10:49:43.566-03:00 level=INFO msg=SignTransaction api=signer type=request metadata="{\"remote\":\"172.28.0.3:46972\",\"local\":\"172.17.0.1:8550\",\"scheme\":\"http\",\"User-Agent\":\"Go-http-client/1.1\",\"Origin\":\"\"}" tx="{\"from\":\"0x25815ef1C6Eb80D88A5E31412022B8870B7B1C43\",\"to\":\"0x646a916f656F39e1EFA98d4D8eBA2BBdb7C6779B\",\"gas\":\"0x5208\",\"gasPrice\":null,\"maxFeePerGas\":\"0x5af8d304\",\"maxPriorityFeePerGas\":\"0x3b9aca00\",\"value\":\"0x470de4df820000\",\"nonce\":\"0x0\",\"data\":\"0x\",\"accessList\":[],\"chainId\":\"0x7e7e\"}" methodSelector=<nil>
time=2024-05-31T10:49:51.692-03:00 level=INFO msg=SignTransaction api=signer type=response data=<nil> error="could not decrypt key with given password"
time=2024-05-31T10:49:54.834-03:00 level=INFO msg=List api=signer type=request metadata="{\"remote\":\"172.28.0.3:46972\",\"local\":\"172.17.0.1:8550\",\"scheme\":\"http\",\"User-Agent\":\"Go-http-client/1.1\",\"Origin\":\"\"}"
time=2024-05-31T10:49:56.481-03:00 level=INFO msg=List api=signer type=response data="[0x123463a4B065722E99115D6c222f267d9cABb524 0x25815ef1C6Eb80D88A5E31412022B8870B7B1C43 0x646a916f656F39e1EFA98d4D8eBA2BBdb7C6779B]"
time=2024-05-31T10:49:56.483-03:00 level=INFO msg=List api=signer type=request metadata="{\"remote\":\"172.28.0.3:46972\",\"local\":\"172.17.0.1:8550\",\"scheme\":\"http\",\"User-Agent\":\"Go-http-client/1.1\",\"Origin\":\"\"}"
time=2024-05-31T10:49:56.777-03:00 level=INFO msg=List api=signer type=response data="[0x123463a4B065722E99115D6c222f267d9cABb524 0x25815ef1C6Eb80D88A5E31412022B8870B7B1C43 0x646a916f656F39e1EFA98d4D8eBA2BBdb7C6779B]"
time=2024-05-31T10:49:56.782-03:00 level=INFO msg=SignTransaction api=signer type=request metadata="{\"remote\":\"172.28.0.3:46972\",\"local\":\"172.17.0.1:8550\",\"scheme\":\"http\",\"User-Agent\":\"Go-http-client/1.1\",\"Origin\":\"\"}" tx="{\"from\":\"0x25815ef1C6Eb80D88A5E31412022B8870B7B1C43\",\"to\":\"0x646a916f656F39e1EFA98d4D8eBA2BBdb7C6779B\",\"gas\":\"0x5208\",\"gasPrice\":null,\"maxFeePerGas\":\"0x570d11e4\",\"maxPriorityFeePerGas\":\"0x3b9aca00\",\"value\":\"0x470de4df820000\",\"nonce\":\"0x0\",\"data\":\"0x\",\"accessList\":[],\"chainId\":\"0x7e7e\"}" methodSelector=<nil>
time=2024-05-31T10:50:02.428-03:00 level=INFO msg=SignTransaction api=signer type=response data=02f873827e7e80843b9aca0084570d11e482520894646a916f656f39e1efa98d4d8eba2bbdb7c6779b87470de4df82000080c080a0aae8fdb8a6a971a5b569a95b3240522e27c3dcaa34a304b4740bb8df6953291fa01839873355a3afa293f85012b2db995e110ccba632a4d80c4aaee61902ffb94a error=<nil>
time=2024-05-31T10:50:27.930-03:00 level=INFO msg=List api=signer type=request metadata="{\"remote\":\"172.28.0.3:46972\",\"local\":\"172.17.0.1:8550\",\"scheme\":\"http\",\"User-Agent\":\"Go-http-client/1.1\",\"Origin\":\"\"}"
time=2024-05-31T10:50:29.857-03:00 level=INFO msg=List api=signer type=response data="[0x123463a4B065722E99115D6c222f267d9cABb524 0x25815ef1C6Eb80D88A5E31412022B8870B7B1C43 0x646a916f656F39e1EFA98d4D8eBA2BBdb7C6779B]"
time=2024-05-31T10:50:37.778-03:00 level=INFO msg=List api=signer type=request metadata="{\"remote\":\"172.28.0.3:46972\",\"local\":\"172.17.0.1:8550\",\"scheme\":\"http\",\"User-Agent\":\"Go-http-client/1.1\",\"Origin\":\"\"}"
time=2024-05-31T10:50:40.177-03:00 level=INFO msg=List api=signer type=response data="[0x123463a4B065722E99115D6c222f267d9cABb524 0x25815ef1C6Eb80D88A5E31412022B8870B7B1C43 0x646a916f656F39e1EFA98d4D8eBA2BBdb7C6779B]"
